{
  "_format": "hh-sol-artifact-1",
  "contractName": "CertificateVerification",
  "sourceName": "contracts/CertificateVerification.sol",
  "abi": [
    {
      "inputs": [],
      "stateMutability": "nonpayable",
      "type": "constructor"
    },
    {
      "anonymous": false,
      "inputs": [
        {
          "indexed": false,
          "internalType": "string",
          "name": "certificateId",
          "type": "string"
        },
        {
          "indexed": false,
          "internalType": "string",
          "name": "studentName",
          "type": "string"
        },
        {
          "indexed": false,
          "internalType": "string",
          "name": "courseName",
          "type": "string"
        },
        {
          "indexed": false,
          "internalType": "uint256",
          "name": "issueDate",
          "type": "uint256"
        },
        {
          "indexed": false,
          "internalType": "string",
          "name": "ipfsHash",
          "type": "string"
        },
        {
          "indexed": false,
          "internalType": "string",
          "name": "imageHash",
          "type": "string"
        }
      ],
      "name": "CertificateIssued",
      "type": "event"
    },
    {
      "inputs": [
        {
          "internalType": "string",
          "name": "",
          "type": "string"
        }
      ],
      "name": "certificates",
      "outputs": [
        {
          "internalType": "string",
          "name": "studentName",
          "type": "string"
        },
        {
          "internalType": "string",
          "name": "courseName",
          "type": "string"
        },
        {
          "internalType": "uint256",
          "name": "issueDate",
          "type": "uint256"
        },
        {
          "internalType": "string",
          "name": "certificateId",
          "type": "string"
        },
        {
          "internalType": "string",
          "name": "ipfsHash",
          "type": "string"
        },
        {
          "internalType": "bool",
          "name": "isValid",
          "type": "bool"
        },
        {
          "internalType": "string",
          "name": "imageHash",
          "type": "string"
        }
      ],
      "stateMutability": "view",
      "type": "function"
    },
    {
      "inputs": [
        {
          "internalType": "string",
          "name": "studentName",
          "type": "string"
        },
        {
          "internalType": "string",
          "name": "certificateId",
          "type": "string"
        }
      ],
      "name": "getCertificateByStudent",
      "outputs": [
        {
          "internalType": "string",
          "name": "courseName",
          "type": "string"
        },
        {
          "internalType": "uint256",
          "name": "issueDate",
          "type": "uint256"
        },
        {
          "internalType": "string",
          "name": "ipfsHash",
          "type": "string"
        },
        {
          "internalType": "bool",
          "name": "isValid",
          "type": "bool"
        }
      ],
      "stateMutability": "view",
      "type": "function"
    },
    {
      "inputs": [
        {
          "internalType": "string",
          "name": "studentName",
          "type": "string"
        },
        {
          "internalType": "string",
          "name": "courseName",
          "type": "string"
        },
        {
          "internalType": "string",
          "name": "certificateId",
          "type": "string"
        },
        {
          "internalType": "uint256",
          "name": "issueDate",
          "type": "uint256"
        },
        {
          "internalType": "string",
          "name": "ipfsHash",
          "type": "string"
        },
        {
          "internalType": "string",
          "name": "imageHash",
          "type": "string"
        }
      ],
      "name": "issueCertificate",
      "outputs": [],
      "stateMutability": "nonpayable",
      "type": "function"
    },
    {
      "inputs": [],
      "name": "owner",
      "outputs": [
        {
          "internalType": "address",
          "name": "",
          "type": "address"
        }
      ],
      "stateMutability": "view",
      "type": "function"
    },
    {
      "inputs": [
        {
          "internalType": "string",
          "name": "certificateId",
          "type": "string"
        },
        {
          "internalType": "string",
          "name": "uploadedImageHash",
          "type": "string"
        }
      ],
      "name": "verifyCertificate",
      "outputs": [
        {
          "internalType": "string",
          "name": "studentName",
          "type": "string"
        },
        {
          "internalType": "string",
          "name": "courseName",
          "type": "string"
        },
        {
          "internalType": "uint256",
          "name": "issueDate",
          "type": "uint256"
        },
        {
          "internalType": "string",
          "name": "ipfsHash",
          "type": "string"
        },
        {
          "internalType": "bool",
          "name": "isValid",
          "type": "bool"
        },
        {
          "internalType": "bool",
          "name": "imageVerified",
          "type": "bool"
        }
      ],
      "stateMutability": "view",
      "type": "function"
    }
  ],
  "bytecode": "0x608060405234801561001057600080fd5b5033600160006101000a81548173ffffffffffffffffffffffffffffffffffffffff021916908373ffffffffffffffffffffffffffffffffffffffff160217905550611a92806100616000396000f3fe608060405234801561001057600080fd5b50600436106100575760003560e01c80632751f71b1461005c578063561278db146100915780635961243a146100c45780638da5cb5b146100e05780638f2b91ea146100fe575b600080fd5b6100766004803603810190610071919061101b565b610134565b60405161008896959493929190611146565b60405180910390f35b6100ab60048036038101906100a6919061101b565b610539565b6040516100bb94939291906111bc565b60405180910390f35b6100de60048036038101906100d9919061123b565b61096b565b005b6100e8610b8e565b6040516100f59190611395565b60405180910390f35b610118600480360381019061011391906113b0565b610bb4565b60405161012b97969594939291906113f9565b60405180910390f35b606080600060606000806000808960405161014f91906114c7565b90815260200160405180910390206040518060e00160405290816000820180546101789061150d565b80601f01602080910402602001604051908101604052809291908181526020018280546101a49061150d565b80156101f15780601f106101c6576101008083540402835291602001916101f1565b820191906000526020600020905b8154815290600101906020018083116101d457829003601f168201915b5050505050815260200160018201805461020a9061150d565b80601f01602080910402602001604051908101604052809291908181526020018280546102369061150d565b80156102835780601f1061025857610100808354040283529160200191610283565b820191906000526020600020905b81548152906001019060200180831161026657829003601f168201915b50505050508152602001600282015481526020016003820180546102a69061150d565b80601f01602080910402602001604051908101604052809291908181526020018280546102d29061150d565b801561031f5780601f106102f45761010080835404028352916020019161031f565b820191906000526020600020905b81548152906001019060200180831161030257829003601f168201915b505050505081526020016004820180546103389061150d565b80601f01602080910402602001604051908101604052809291908181526020018280546103649061150d565b80156103b15780601f10610386576101008083540402835291602001916103b1565b820191906000526020600020905b81548152906001019060200180831161039457829003601f168201915b505050505081526020016005820160009054906101000a900460ff161515151581526020016006820180546103e59061150d565b80601f01602080910402602001604051908101604052809291908181526020018280546104119061150d565b801561045e5780601f106104335761010080835404028352916020019161045e565b820191906000526020600020905b81548152906001019060200180831161044157829003601f168201915b505050505081525050905060008160400151036104b0576040517f08c379a00000000000000000000000000000000000000000000000000000000081526004016104a79061158a565b60405180910390fd5b6000886040516020016104c391906114c7565b604051602081830303815290604052805190602001208260c001516040516020016104ee91906114c7565b6040516020818303038152906040528051906020012014905081600001518260200151836040015184608001518560a001518597509750975097509750975050509295509295509295565b60606000606060008060008660405161055291906114c7565b90815260200160405180910390206040518060e001604052908160008201805461057b9061150d565b80601f01602080910402602001604051908101604052809291908181526020018280546105a79061150d565b80156105f45780601f106105c9576101008083540402835291602001916105f4565b820191906000526020600020905b8154815290600101906020018083116105d757829003601f168201915b5050505050815260200160018201805461060d9061150d565b80601f01602080910402602001604051908101604052809291908181526020018280546106399061150d565b80156106865780601f1061065b57610100808354040283529160200191610686565b820191906000526020600020905b81548152906001019060200180831161066957829003601f168201915b50505050508152602001600282015481526020016003820180546106a99061150d565b80601f01602080910402602001604051908101604052809291908181526020018280546106d59061150d565b80156107225780601f106106f757610100808354040283529160200191610722565b820191906000526020600020905b81548152906001019060200180831161070557829003601f168201915b5050505050815260200160048201805461073b9061150d565b80601f01602080910402602001604051908101604052809291908181526020018280546107679061150d565b80156107b45780601f10610789576101008083540402835291602001916107b4565b820191906000526020600020905b81548152906001019060200180831161079757829003601f168201915b505050505081526020016005820160009054906101000a900460ff161515151581526020016006820180546107e89061150d565b80601f01602080910402602001604051908101604052809291908181526020018280546108149061150d565b80156108615780601f1061083657610100808354040283529160200191610861565b820191906000526020600020905b81548152906001019060200180831161084457829003601f168201915b505050505081525050905060008160400151036108b3576040517f08c379a00000000000000000000000000000000000000000000000000000000081526004016108aa9061158a565b60405180910390fd5b866040516020016108c491906114c7565b6040516020818303038152906040528051906020012081600001516040516020016108ef91906114c7565b6040516020818303038152906040528051906020012014610945576040517f08c379a000000000000000000000000000000000000000000000000000000000815260040161093c906115f6565b60405180910390fd5b8060200151816040015182608001518360a0015194509450945094505092959194509250565b60008451116109af576040517f08c379a00000000000000000000000000000000000000000000000000000000081526004016109a690611662565b60405180910390fd5b60008651116109f3576040517f08c379a00000000000000000000000000000000000000000000000000000000081526004016109ea906116ce565b60405180910390fd5b60008085604051610a0491906114c7565b90815260200160405180910390206002015414610a56576040517f08c379a0000000000000000000000000000000000000000000000000000000008152600401610a4d9061173a565b60405180910390fd5b6040518060e0016040528087815260200186815260200184815260200185815260200183815260200160011515815260200182815250600085604051610a9c91906114c7565b90815260200160405180910390206000820151816000019081610abf9190611906565b506020820151816001019081610ad59190611906565b50604082015181600201556060820151816003019081610af59190611906565b506080820151816004019081610b0b9190611906565b5060a08201518160050160006101000a81548160ff02191690831515021790555060c0820151816006019081610b419190611906565b509050507f813598315447a0937817c2bbc41349a6556da65ca3b89b2c9fd8b72c95a68b56848787868686604051610b7e969594939291906119d8565b60405180910390a1505050505050565b600160009054906101000a900473ffffffffffffffffffffffffffffffffffffffff1681565b600081805160208101820180518482526020830160208501208183528095505050505050600091509050806000018054610bed9061150d565b80601f0160208091040260200160405190810160405280929190818152602001828054610c199061150d565b8015610c665780601f10610c3b57610100808354040283529160200191610c66565b820191906000526020600020905b815481529060010190602001808311610c4957829003601f168201915b505050505090806001018054610c7b9061150d565b80601f0160208091040260200160405190810160405280929190818152602001828054610ca79061150d565b8015610cf45780601f10610cc957610100808354040283529160200191610cf4565b820191906000526020600020905b815481529060010190602001808311610cd757829003601f168201915b505050505090806002015490806003018054610d0f9061150d565b80601f0160208091040260200160405190810160405280929190818152602001828054610d3b9061150d565b8015610d885780601f10610d5d57610100808354040283529160200191610d88565b820191906000526020600020905b815481529060010190602001808311610d6b57829003601f168201915b505050505090806004018054610d9d9061150d565b80601f0160208091040260200160405190810160405280929190818152602001828054610dc99061150d565b8015610e165780601f10610deb57610100808354040283529160200191610e16565b820191906000526020600020905b815481529060010190602001808311610df957829003601f168201915b5050505050908060050160009054906101000a900460ff1690806006018054610e3e9061150d565b80601f0160208091040260200160405190810160405280929190818152602001828054610e6a9061150d565b8015610eb75780601f10610e8c57610100808354040283529160200191610eb7565b820191906000526020600020905b815481529060010190602001808311610e9a57829003601f168201915b5050505050905087565b6000604051905090565b600080fd5b600080fd5b600080fd5b600080fd5b6000601f19601f8301169050919050565b7f4e487b7100000000000000000000000000000000000000000000000000000000600052604160045260246000fd5b610f2882610edf565b810181811067ffffffffffffffff82111715610f4757610f46610ef0565b5b80604052505050565b6000610f5a610ec1565b9050610f668282610f1f565b919050565b600067ffffffffffffffff821115610f8657610f85610ef0565b5b610f8f82610edf565b9050602081019050919050565b82818337600083830152505050565b6000610fbe610fb984610f6b565b610f50565b905082815260208101848484011115610fda57610fd9610eda565b5b610fe5848285610f9c565b509392505050565b600082601f83011261100257611001610ed5565b5b8135611012848260208601610fab565b91505092915050565b6000806040838503121561103257611031610ecb565b5b600083013567ffffffffffffffff8111156110505761104f610ed0565b5b61105c85828601610fed565b925050602083013567ffffffffffffffff81111561107d5761107c610ed0565b5b61108985828601610fed565b9150509250929050565b600081519050919050565b600082825260208201905092915050565b60005b838110156110cd5780820151818401526020810190506110b2565b60008484015250505050565b60006110e482611093565b6110ee818561109e565b93506110fe8185602086016110af565b61110781610edf565b840191505092915050565b6000819050919050565b61112581611112565b82525050565b60008115159050919050565b6111408161112b565b82525050565b600060c082019050818103600083015261116081896110d9565b9050818103602083015261117481886110d9565b9050611183604083018761111c565b818103606083015261119581866110d9565b90506111a46080830185611137565b6111b160a0830184611137565b979650505050505050565b600060808201905081810360008301526111d681876110d9565b90506111e5602083018661111c565b81810360408301526111f781856110d9565b90506112066060830184611137565b95945050505050565b61121881611112565b811461122357600080fd5b50565b6000813590506112358161120f565b92915050565b60008060008060008060c0878903121561125857611257610ecb565b5b600087013567ffffffffffffffff81111561127657611275610ed0565b5b61128289828a01610fed565b965050602087013567ffffffffffffffff8111156112a3576112a2610ed0565b5b6112af89828a01610fed565b955050604087013567ffffffffffffffff8111156112d0576112cf610ed0565b5b6112dc89828a01610fed565b94505060606112ed89828a01611226565b935050608087013567ffffffffffffffff81111561130e5761130d610ed0565b5b61131a89828a01610fed565b92505060a087013567ffffffffffffffff81111561133b5761133a610ed0565b5b61134789828a01610fed565b9150509295509295509295565b600073ffffffffffffffffffffffffffffffffffffffff82169050919050565b600061137f82611354565b9050919050565b61138f81611374565b82525050565b60006020820190506113aa6000830184611386565b92915050565b6000602082840312156113c6576113c5610ecb565b5b600082013567ffffffffffffffff8111156113e4576113e3610ed0565b5b6113f084828501610fed565b91505092915050565b600060e0820190508181036000830152611413818a6110d9565b9050818103602083015261142781896110d9565b9050611436604083018861111c565b818103606083015261144881876110d9565b9050818103608083015261145c81866110d9565b905061146b60a0830185611137565b81810360c083015261147d81846110d9565b905098975050505050505050565b600081905092915050565b60006114a182611093565b6114ab818561148b565b93506114bb8185602086016110af565b80840191505092915050565b60006114d38284611496565b915081905092915050565b7f4e487b7100000000000000000000000000000000000000000000000000000000600052602260045260246000fd5b6000600282049050600182168061152557607f821691505b602082108103611538576115376114de565b5b50919050565b7f436572746966696361746520646f6573206e6f74206578697374000000000000600082015250565b6000611574601a8361109e565b915061157f8261153e565b602082019050919050565b600060208201905081810360008301526115a381611567565b9050919050565b7f53747564656e74206e616d6520646f6573206e6f74206d617463680000000000600082015250565b60006115e0601b8361109e565b91506115eb826115aa565b602082019050919050565b6000602082019050818103600083015261160f816115d3565b9050919050565b7f43657274696669636174652049442063616e6e6f7420626520656d7074790000600082015250565b600061164c601e8361109e565b915061165782611616565b602082019050919050565b6000602082019050818103600083015261167b8161163f565b9050919050565b7f53747564656e74206e616d652063616e6e6f7420626520656d70747900000000600082015250565b60006116b8601c8361109e565b91506116c382611682565b602082019050919050565b600060208201905081810360008301526116e7816116ab565b9050919050565b7f436572746966696361746520494420616c726561647920657869737473000000600082015250565b6000611724601d8361109e565b915061172f826116ee565b602082019050919050565b6000602082019050818103600083015261175381611717565b9050919050565b60008190508160005260206000209050919050565b60006020601f8301049050919050565b600082821b905092915050565b6000600883026117bc7fffffffffffffffffffffffffffffffffffffffffffffffffffffffffffffffff8261177f565b6117c6868361177f565b95508019841693508086168417925050509392505050565b6000819050919050565b60006118036117fe6117f984611112565b6117de565b611112565b9050919050565b6000819050919050565b61181d836117e8565b6118316118298261180a565b84845461178c565b825550505050565b600090565b611846611839565b611851818484611814565b505050565b5b818110156118755761186a60008261183e565b600181019050611857565b5050565b601f8211156118ba5761188b8161175a565b6118948461176f565b810160208510156118a3578190505b6118b76118af8561176f565b830182611856565b50505b505050565b600082821c905092915050565b60006118dd600019846008026118bf565b1980831691505092915050565b60006118f683836118cc565b9150826002028217905092915050565b61190f82611093565b67ffffffffffffffff81111561192857611927610ef0565b5b611932825461150d565b61193d828285611879565b600060209050601f831160018114611970576000841561195e578287015190505b61196885826118ea565b8655506119d0565b601f19841661197e8661175a565b60005b828110156119a657848901518255600182019150602085019450602081019050611981565b868310156119c357848901516119bf601f8916826118cc565b8355505b6001600288020188555050505b505050505050565b600060c08201905081810360008301526119f281896110d9565b90508181036020830152611a0681886110d9565b90508181036040830152611a1a81876110d9565b9050611a29606083018661111c565b8181036080830152611a3b81856110d9565b905081810360a0830152611a4f81846110d9565b905097965050505050505056fea2646970667358221220240351510e7571e99bfc4fd84155fd06fb263d4f2a9ce0e527f37ea4b5dee56f64736f6c63430008130033",
  "linkReferences": {},
  "deployedLinkReferences": {}
}