{
  "_format": "hh-sol-artifact-1",
  "contractName": "CertificateVerification",
  "sourceName": "contracts/CertificateVerification.sol",
  "abi": [
    {
      "inputs": [],
      "stateMutability": "nonpayable",
      "type": "constructor"
    },
    {
      "anonymous": false,
      "inputs": [
        {
          "indexed": false,
          "internalType": "string",
          "name": "certificateId",
          "type": "string"
        },
        {
          "indexed": false,
          "internalType": "string",
          "name": "studentName",
          "type": "string"
        },
        {
          "indexed": false,
          "internalType": "string",
          "name": "courseName",
          "type": "string"
        },
        {
          "indexed": false,
          "internalType": "uint256",
          "name": "issueDate",
          "type": "uint256"
        },
        {
          "indexed": false,
          "internalType": "string",
          "name": "ipfsHash",
          "type": "string"
        },
        {
          "indexed": false,
          "internalType": "string",
          "name": "imageHash",
          "type": "string"
        }
      ],
      "name": "CertificateIssued",
      "type": "event"
    },
    {
      "anonymous": false,
      "inputs": [
        {
          "indexed": false,
          "internalType": "address",
          "name": "issuer",
          "type": "address"
        }
      ],
      "name": "IssuerAuthorized",
      "type": "event"
    },
    {
      "anonymous": false,
      "inputs": [
        {
          "indexed": false,
          "internalType": "address",
          "name": "issuer",
          "type": "address"
        }
      ],
      "name": "IssuerRevoked",
      "type": "event"
    },
    {
      "inputs": [
        {
          "internalType": "address",
          "name": "issuer",
          "type": "address"
        }
      ],
      "name": "authorizeIssuer",
      "outputs": [],
      "stateMutability": "nonpayable",
      "type": "function"
    },
    {
      "inputs": [
        {
          "internalType": "address",
          "name": "",
          "type": "address"
        }
      ],
      "name": "authorizedIssuers",
      "outputs": [
        {
          "internalType": "bool",
          "name": "",
          "type": "bool"
        }
      ],
      "stateMutability": "view",
      "type": "function"
    },
    {
      "inputs": [
        {
          "internalType": "string",
          "name": "",
          "type": "string"
        }
      ],
      "name": "certificates",
      "outputs": [
        {
          "internalType": "string",
          "name": "studentName",
          "type": "string"
        },
        {
          "internalType": "string",
          "name": "courseName",
          "type": "string"
        },
        {
          "internalType": "uint256",
          "name": "issueDate",
          "type": "uint256"
        },
        {
          "internalType": "string",
          "name": "certificateId",
          "type": "string"
        },
        {
          "internalType": "string",
          "name": "ipfsHash",
          "type": "string"
        },
        {
          "internalType": "bool",
          "name": "isValid",
          "type": "bool"
        },
        {
          "internalType": "string",
          "name": "imageHash",
          "type": "string"
        }
      ],
      "stateMutability": "view",
      "type": "function"
    },
    {
      "inputs": [
        {
          "internalType": "string",
          "name": "studentName",
          "type": "string"
        },
        {
          "internalType": "string",
          "name": "certificateId",
          "type": "string"
        }
      ],
      "name": "getCertificateByStudent",
      "outputs": [
        {
          "internalType": "string",
          "name": "courseName",
          "type": "string"
        },
        {
          "internalType": "uint256",
          "name": "issueDate",
          "type": "uint256"
        },
        {
          "internalType": "string",
          "name": "ipfsHash",
          "type": "string"
        },
        {
          "internalType": "bool",
          "name": "isValid",
          "type": "bool"
        }
      ],
      "stateMutability": "view",
      "type": "function"
    },
    {
      "inputs": [
        {
          "internalType": "string",
          "name": "studentName",
          "type": "string"
        },
        {
          "internalType": "string",
          "name": "courseName",
          "type": "string"
        },
        {
          "internalType": "string",
          "name": "certificateId",
          "type": "string"
        },
        {
          "internalType": "uint256",
          "name": "issueDate",
          "type": "uint256"
        },
        {
          "internalType": "string",
          "name": "ipfsHash",
          "type": "string"
        },
        {
          "internalType": "string",
          "name": "imageHash",
          "type": "string"
        }
      ],
      "name": "issueCertificate",
      "outputs": [],
      "stateMutability": "nonpayable",
      "type": "function"
    },
    {
      "inputs": [],
      "name": "owner",
      "outputs": [
        {
          "internalType": "address",
          "name": "",
          "type": "address"
        }
      ],
      "stateMutability": "view",
      "type": "function"
    },
    {
      "inputs": [
        {
          "internalType": "address",
          "name": "issuer",
          "type": "address"
        }
      ],
      "name": "revokeIssuer",
      "outputs": [],
      "stateMutability": "nonpayable",
      "type": "function"
    },
    {
      "inputs": [
        {
          "internalType": "string",
          "name": "certificateId",
          "type": "string"
        },
        {
          "internalType": "string",
          "name": "uploadedImageHash",
          "type": "string"
        }
      ],
      "name": "verifyCertificate",
      "outputs": [
        {
          "internalType": "string",
          "name": "studentName",
          "type": "string"
        },
        {
          "internalType": "string",
          "name": "courseName",
          "type": "string"
        },
        {
          "internalType": "uint256",
          "name": "issueDate",
          "type": "uint256"
        },
        {
          "internalType": "string",
          "name": "ipfsHash",
          "type": "string"
        },
        {
          "internalType": "bool",
          "name": "isValid",
          "type": "bool"
        },
        {
          "internalType": "bool",
          "name": "imageVerified",
          "type": "bool"
        }
      ],
      "stateMutability": "view",
      "type": "function"
    }
  ],
  "bytecode": "0x608060405234801561001057600080fd5b5033600260006101000a81548173ffffffffffffffffffffffffffffffffffffffff021916908373ffffffffffffffffffffffffffffffffffffffff16021790555060018060003373ffffffffffffffffffffffffffffffffffffffff1673ffffffffffffffffffffffffffffffffffffffff16815260200190815260200160002060006101000a81548160ff0219169083151502179055506122c4806100b86000396000f3fe608060405234801561001057600080fd5b50600436106100875760003560e01c80635961243a1161005b5780635961243a1461012c5780638da5cb5b146101485780638f2b91ea14610166578063f731fa0f1461019c57610087565b80626296791461008c5780632751f71b146100a8578063436693d5146100dd578063561278db146100f9575b600080fd5b6100a660048036038101906100a19190611463565b6101cc565b005b6100c260048036038101906100bd91906115d6565b61040a565b6040516100d496959493929190611701565b60405180910390f35b6100f760048036038101906100f29190611463565b61080f565b005b610113600480360381019061010e91906115d6565b6109bd565b6040516101239493929190611777565b60405180910390f35b610146600480360381019061014191906117f6565b610def565b005b61015061109e565b60405161015d919061191e565b60405180910390f35b610180600480360381019061017b9190611939565b6110c4565b6040516101939796959493929190611982565b60405180910390f35b6101b660048036038101906101b19190611463565b6113d1565b6040516101c39190611a14565b60405180910390f35b600260009054906101000a900473ffffffffffffffffffffffffffffffffffffffff1673ffffffffffffffffffffffffffffffffffffffff163373ffffffffffffffffffffffffffffffffffffffff161461025c576040517f08c379a000000000000000000000000000000000000000000000000000000000815260040161025390611aa1565b60405180910390fd5b600260009054906101000a900473ffffffffffffffffffffffffffffffffffffffff1673ffffffffffffffffffffffffffffffffffffffff168173ffffffffffffffffffffffffffffffffffffffff16036102ec576040517f08c379a00000000000000000000000000000000000000000000000000000000081526004016102e390611b33565b60405180910390fd5b600160008273ffffffffffffffffffffffffffffffffffffffff1673ffffffffffffffffffffffffffffffffffffffff16815260200190815260200160002060009054906101000a900460ff16610378576040517f08c379a000000000000000000000000000000000000000000000000000000000815260040161036f90611b9f565b60405180910390fd5b6000600160008373ffffffffffffffffffffffffffffffffffffffff1673ffffffffffffffffffffffffffffffffffffffff16815260200190815260200160002060006101000a81548160ff0219169083151502179055507f95a4c2ae425bb769549aa1a911911ff57c17ae811ae8c8962d0b9746fcb15397816040516103ff919061191e565b60405180910390a150565b60608060006060600080600080896040516104259190611bfb565b90815260200160405180910390206040518060e001604052908160008201805461044e90611c41565b80601f016020809104026020016040519081016040528092919081815260200182805461047a90611c41565b80156104c75780601f1061049c576101008083540402835291602001916104c7565b820191906000526020600020905b8154815290600101906020018083116104aa57829003601f168201915b505050505081526020016001820180546104e090611c41565b80601f016020809104026020016040519081016040528092919081815260200182805461050c90611c41565b80156105595780601f1061052e57610100808354040283529160200191610559565b820191906000526020600020905b81548152906001019060200180831161053c57829003601f168201915b505050505081526020016002820154815260200160038201805461057c90611c41565b80601f01602080910402602001604051908101604052809291908181526020018280546105a890611c41565b80156105f55780601f106105ca576101008083540402835291602001916105f5565b820191906000526020600020905b8154815290600101906020018083116105d857829003601f168201915b5050505050815260200160048201805461060e90611c41565b80601f016020809104026020016040519081016040528092919081815260200182805461063a90611c41565b80156106875780601f1061065c57610100808354040283529160200191610687565b820191906000526020600020905b81548152906001019060200180831161066a57829003601f168201915b505050505081526020016005820160009054906101000a900460ff161515151581526020016006820180546106bb90611c41565b80601f01602080910402602001604051908101604052809291908181526020018280546106e790611c41565b80156107345780601f1061070957610100808354040283529160200191610734565b820191906000526020600020905b81548152906001019060200180831161071757829003601f168201915b50505050508152505090506000816040015103610786576040517f08c379a000000000000000000000000000000000000000000000000000000000815260040161077d90611cbe565b60405180910390fd5b6000886040516020016107999190611bfb565b604051602081830303815290604052805190602001208260c001516040516020016107c49190611bfb565b6040516020818303038152906040528051906020012014905081600001518260200151836040015184608001518560a001518597509750975097509750975050509295509295509295565b600260009054906101000a900473ffffffffffffffffffffffffffffffffffffffff1673ffffffffffffffffffffffffffffffffffffffff163373ffffffffffffffffffffffffffffffffffffffff161461089f576040517f08c379a000000000000000000000000000000000000000000000000000000000815260040161089690611aa1565b60405180910390fd5b600160008273ffffffffffffffffffffffffffffffffffffffff1673ffffffffffffffffffffffffffffffffffffffff16815260200190815260200160002060009054906101000a900460ff161561092c576040517f08c379a000000000000000000000000000000000000000000000000000000000815260040161092390611d2a565b60405180910390fd5b60018060008373ffffffffffffffffffffffffffffffffffffffff1673ffffffffffffffffffffffffffffffffffffffff16815260200190815260200160002060006101000a81548160ff0219169083151502179055507f8b4006ca14f23d4e7aa8d120d1ab7c3761d650eefac1a5d6732dbea94b54ea24816040516109b2919061191e565b60405180910390a150565b6060600060606000806000866040516109d69190611bfb565b90815260200160405180910390206040518060e00160405290816000820180546109ff90611c41565b80601f0160208091040260200160405190810160405280929190818152602001828054610a2b90611c41565b8015610a785780601f10610a4d57610100808354040283529160200191610a78565b820191906000526020600020905b815481529060010190602001808311610a5b57829003601f168201915b50505050508152602001600182018054610a9190611c41565b80601f0160208091040260200160405190810160405280929190818152602001828054610abd90611c41565b8015610b0a5780601f10610adf57610100808354040283529160200191610b0a565b820191906000526020600020905b815481529060010190602001808311610aed57829003601f168201915b5050505050815260200160028201548152602001600382018054610b2d90611c41565b80601f0160208091040260200160405190810160405280929190818152602001828054610b5990611c41565b8015610ba65780601f10610b7b57610100808354040283529160200191610ba6565b820191906000526020600020905b815481529060010190602001808311610b8957829003601f168201915b50505050508152602001600482018054610bbf90611c41565b80601f0160208091040260200160405190810160405280929190818152602001828054610beb90611c41565b8015610c385780601f10610c0d57610100808354040283529160200191610c38565b820191906000526020600020905b815481529060010190602001808311610c1b57829003601f168201915b505050505081526020016005820160009054906101000a900460ff16151515158152602001600682018054610c6c90611c41565b80601f0160208091040260200160405190810160405280929190818152602001828054610c9890611c41565b8015610ce55780601f10610cba57610100808354040283529160200191610ce5565b820191906000526020600020905b815481529060010190602001808311610cc857829003601f168201915b50505050508152505090506000816040015103610d37576040517f08c379a0000000000000000000000000000000000000000000000000000000008152600401610d2e90611cbe565b60405180910390fd5b86604051602001610d489190611bfb565b604051602081830303815290604052805190602001208160000151604051602001610d739190611bfb565b6040516020818303038152906040528051906020012014610dc9576040517f08c379a0000000000000000000000000000000000000000000000000000000008152600401610dc090611d96565b60405180910390fd5b8060200151816040015182608001518360a0015194509450945094505092959194509250565b600160003373ffffffffffffffffffffffffffffffffffffffff1673ffffffffffffffffffffffffffffffffffffffff16815260200190815260200160002060009054906101000a900460ff16610e7b576040517f08c379a0000000000000000000000000000000000000000000000000000000008152600401610e7290611e28565b60405180910390fd5b6000845111610ebf576040517f08c379a0000000000000000000000000000000000000000000000000000000008152600401610eb690611e94565b60405180910390fd5b6000865111610f03576040517f08c379a0000000000000000000000000000000000000000000000000000000008152600401610efa90611f00565b60405180910390fd5b60008085604051610f149190611bfb565b90815260200160405180910390206002015414610f66576040517f08c379a0000000000000000000000000000000000000000000000000000000008152600401610f5d90611f6c565b60405180910390fd5b6040518060e0016040528087815260200186815260200184815260200185815260200183815260200160011515815260200182815250600085604051610fac9190611bfb565b90815260200160405180910390206000820151816000019081610fcf9190612138565b506020820151816001019081610fe59190612138565b506040820151816002015560608201518160030190816110059190612138565b50608082015181600401908161101b9190612138565b5060a08201518160050160006101000a81548160ff02191690831515021790555060c08201518160060190816110519190612138565b509050507f813598315447a0937817c2bbc41349a6556da65ca3b89b2c9fd8b72c95a68b5684878786868660405161108e9695949392919061220a565b60405180910390a1505050505050565b600260009054906101000a900473ffffffffffffffffffffffffffffffffffffffff1681565b6000818051602081018201805184825260208301602085012081835280955050505050506000915090508060000180546110fd90611c41565b80601f016020809104026020016040519081016040528092919081815260200182805461112990611c41565b80156111765780601f1061114b57610100808354040283529160200191611176565b820191906000526020600020905b81548152906001019060200180831161115957829003601f168201915b50505050509080600101805461118b90611c41565b80601f01602080910402602001604051908101604052809291908181526020018280546111b790611c41565b80156112045780601f106111d957610100808354040283529160200191611204565b820191906000526020600020905b8154815290600101906020018083116111e757829003601f168201915b50505050509080600201549080600301805461121f90611c41565b80601f016020809104026020016040519081016040528092919081815260200182805461124b90611c41565b80156112985780601f1061126d57610100808354040283529160200191611298565b820191906000526020600020905b81548152906001019060200180831161127b57829003601f168201915b5050505050908060040180546112ad90611c41565b80601f01602080910402602001604051908101604052809291908181526020018280546112d990611c41565b80156113265780601f106112fb57610100808354040283529160200191611326565b820191906000526020600020905b81548152906001019060200180831161130957829003601f168201915b5050505050908060050160009054906101000a900460ff169080600601805461134e90611c41565b80601f016020809104026020016040519081016040528092919081815260200182805461137a90611c41565b80156113c75780601f1061139c576101008083540402835291602001916113c7565b820191906000526020600020905b8154815290600101906020018083116113aa57829003601f168201915b5050505050905087565b60016020528060005260406000206000915054906101000a900460ff1681565b6000604051905090565b600080fd5b600080fd5b600073ffffffffffffffffffffffffffffffffffffffff82169050919050565b600061143082611405565b9050919050565b61144081611425565b811461144b57600080fd5b50565b60008135905061145d81611437565b92915050565b600060208284031215611479576114786113fb565b5b60006114878482850161144e565b91505092915050565b600080fd5b600080fd5b6000601f19601f8301169050919050565b7f4e487b7100000000000000000000000000000000000000000000000000000000600052604160045260246000fd5b6114e38261149a565b810181811067ffffffffffffffff82111715611502576115016114ab565b5b80604052505050565b60006115156113f1565b905061152182826114da565b919050565b600067ffffffffffffffff821115611541576115406114ab565b5b61154a8261149a565b9050602081019050919050565b82818337600083830152505050565b600061157961157484611526565b61150b565b90508281526020810184848401111561159557611594611495565b5b6115a0848285611557565b509392505050565b600082601f8301126115bd576115bc611490565b5b81356115cd848260208601611566565b91505092915050565b600080604083850312156115ed576115ec6113fb565b5b600083013567ffffffffffffffff81111561160b5761160a611400565b5b611617858286016115a8565b925050602083013567ffffffffffffffff81111561163857611637611400565b5b611644858286016115a8565b9150509250929050565b600081519050919050565b600082825260208201905092915050565b60005b8381101561168857808201518184015260208101905061166d565b60008484015250505050565b600061169f8261164e565b6116a98185611659565b93506116b981856020860161166a565b6116c28161149a565b840191505092915050565b6000819050919050565b6116e0816116cd565b82525050565b60008115159050919050565b6116fb816116e6565b82525050565b600060c082019050818103600083015261171b8189611694565b9050818103602083015261172f8188611694565b905061173e60408301876116d7565b81810360608301526117508186611694565b905061175f60808301856116f2565b61176c60a08301846116f2565b979650505050505050565b600060808201905081810360008301526117918187611694565b90506117a060208301866116d7565b81810360408301526117b28185611694565b90506117c160608301846116f2565b95945050505050565b6117d3816116cd565b81146117de57600080fd5b50565b6000813590506117f0816117ca565b92915050565b60008060008060008060c08789031215611813576118126113fb565b5b600087013567ffffffffffffffff81111561183157611830611400565b5b61183d89828a016115a8565b965050602087013567ffffffffffffffff81111561185e5761185d611400565b5b61186a89828a016115a8565b955050604087013567ffffffffffffffff81111561188b5761188a611400565b5b61189789828a016115a8565b94505060606118a889828a016117e1565b935050608087013567ffffffffffffffff8111156118c9576118c8611400565b5b6118d589828a016115a8565b92505060a087013567ffffffffffffffff8111156118f6576118f5611400565b5b61190289828a016115a8565b9150509295509295509295565b61191881611425565b82525050565b6000602082019050611933600083018461190f565b92915050565b60006020828403121561194f5761194e6113fb565b5b600082013567ffffffffffffffff81111561196d5761196c611400565b5b611979848285016115a8565b91505092915050565b600060e082019050818103600083015261199c818a611694565b905081810360208301526119b08189611694565b90506119bf60408301886116d7565b81810360608301526119d18187611694565b905081810360808301526119e58186611694565b90506119f460a08301856116f2565b81810360c0830152611a068184611694565b905098975050505050505050565b6000602082019050611a2960008301846116f2565b92915050565b7f4f6e6c79206f776e65722063616e2063616c6c20746869732066756e6374696f60008201527f6e00000000000000000000000000000000000000000000000000000000000000602082015250565b6000611a8b602183611659565b9150611a9682611a2f565b604082019050919050565b60006020820190508181036000830152611aba81611a7e565b9050919050565b7f43616e6e6f74207265766f6b65206f776e6572277320617574686f72697a617460008201527f696f6e0000000000000000000000000000000000000000000000000000000000602082015250565b6000611b1d602383611659565b9150611b2882611ac1565b604082019050919050565b60006020820190508181036000830152611b4c81611b10565b9050919050565b7f497373756572206e6f7420617574686f72697a65640000000000000000000000600082015250565b6000611b89601583611659565b9150611b9482611b53565b602082019050919050565b60006020820190508181036000830152611bb881611b7c565b9050919050565b600081905092915050565b6000611bd58261164e565b611bdf8185611bbf565b9350611bef81856020860161166a565b80840191505092915050565b6000611c078284611bca565b915081905092915050565b7f4e487b7100000000000000000000000000000000000000000000000000000000600052602260045260246000fd5b60006002820490506001821680611c5957607f821691505b602082108103611c6c57611c6b611c12565b5b50919050565b7f436572746966696361746520646f6573206e6f74206578697374000000000000600082015250565b6000611ca8601a83611659565b9150611cb382611c72565b602082019050919050565b60006020820190508181036000830152611cd781611c9b565b9050919050565b7f49737375657220616c726561647920617574686f72697a656400000000000000600082015250565b6000611d14601983611659565b9150611d1f82611cde565b602082019050919050565b60006020820190508181036000830152611d4381611d07565b9050919050565b7f53747564656e74206e616d6520646f6573206e6f74206d617463680000000000600082015250565b6000611d80601b83611659565b9150611d8b82611d4a565b602082019050919050565b60006020820190508181036000830152611daf81611d73565b9050919050565b7f4f6e6c7920617574686f72697a656420697373756572732063616e2063616c6c60008201527f20746869732066756e6374696f6e000000000000000000000000000000000000602082015250565b6000611e12602e83611659565b9150611e1d82611db6565b604082019050919050565b60006020820190508181036000830152611e4181611e05565b9050919050565b7f43657274696669636174652049442063616e6e6f7420626520656d7074790000600082015250565b6000611e7e601e83611659565b9150611e8982611e48565b602082019050919050565b60006020820190508181036000830152611ead81611e71565b9050919050565b7f53747564656e74206e616d652063616e6e6f7420626520656d70747900000000600082015250565b6000611eea601c83611659565b9150611ef582611eb4565b602082019050919050565b60006020820190508181036000830152611f1981611edd565b9050919050565b7f436572746966696361746520494420616c726561647920657869737473000000600082015250565b6000611f56601d83611659565b9150611f6182611f20565b602082019050919050565b60006020820190508181036000830152611f8581611f49565b9050919050565b60008190508160005260206000209050919050565b60006020601f8301049050919050565b600082821b905092915050565b600060088302611fee7fffffffffffffffffffffffffffffffffffffffffffffffffffffffffffffffff82611fb1565b611ff88683611fb1565b95508019841693508086168417925050509392505050565b6000819050919050565b600061203561203061202b846116cd565b612010565b6116cd565b9050919050565b6000819050919050565b61204f8361201a565b61206361205b8261203c565b848454611fbe565b825550505050565b600090565b61207861206b565b612083818484612046565b505050565b5b818110156120a75761209c600082612070565b600181019050612089565b5050565b601f8211156120ec576120bd81611f8c565b6120c684611fa1565b810160208510156120d5578190505b6120e96120e185611fa1565b830182612088565b50505b505050565b600082821c905092915050565b600061210f600019846008026120f1565b1980831691505092915050565b600061212883836120fe565b9150826002028217905092915050565b6121418261164e565b67ffffffffffffffff81111561215a576121596114ab565b5b6121648254611c41565b61216f8282856120ab565b600060209050601f8311600181146121a25760008415612190578287015190505b61219a858261211c565b865550612202565b601f1984166121b086611f8c565b60005b828110156121d8578489015182556001820191506020850194506020810190506121b3565b868310156121f557848901516121f1601f8916826120fe565b8355505b6001600288020188555050505b505050505050565b600060c08201905081810360008301526122248189611694565b905081810360208301526122388188611694565b9050818103604083015261224c8187611694565b905061225b60608301866116d7565b818103608083015261226d8185611694565b905081810360a08301526122818184611694565b905097965050505050505056fea26469706673582212201634439b6808f73dbdf82229ac717d6fb9bacc3be5261a83c761fc5cff0328d364736f6c63430008130033",
  "linkReferences": {},
  "deployedLinkReferences": {}
}